:100000000A128A11F22D00308A000408840A82073D
:1000100000344134443443342034563461346C3435
:0A0020007534653420343A3400349E
:100BE400A601A70183010A128A11322E38300A1293
:100BF4008A1153260A128A110C300A128A115326BA
:100C04000A128A1106300A128A1153260A128A110C
:100C140080300A128A1153260A128A110800F2003F
:100C2400242E720884000A128A1103200A128A11DF
:100C34000A128A1185260A128A110130F1007108FC
:100C4400F207242E720884000A128A1103200A1261
:100C54008A110038031D2F2E302E132E312E08003A
:100C6400831603138701860105140A128A11F825D5
:100C74000A128A1101300A128A1111260A128A11E3
:100C8400432E8C300A128A1153260A128A110A1230
:100C94008A1149270A128A11432E432E0A128A11F5
:100CA4000028F000700883120313860007108710D1
:100CB4000715A601A7012708803AFF0083307F02A9
:100CC400031D662EE9302602031C692E6A2E6C2E43
:100CD400812E812E013083120313A6070318A70A5D
:100CE4000030A7072708803AFF0083307F02031DE6
:100CF4007D2EE9302602031C802E812E6C2E831259
:100D0400031307110800F000700883120313860010
:100D1400071487100715A601A7012708803AFF00CA
:100D240083307F02031D982EE9302602031C9B2E7C
:100D34009C2E9E2EB32EB32E013083120313A607CE
:100D44000318A70A0030A7072708803AFF0083305A
:100D54007F02031DAF2EE9302602031CB22EB32EF0
:100D64009E2E8312031307110800790878040319CF
:100D7400BC2EBD2EF32EFD010314FD0DCD2E01302E
:100D84000310F80DF90DFF3E031DC22E0130FC00C7
:100D94007C08FD07CD2EF91FD02ED12EC12ED32EC7
:100DA400D32E79087B02031DD92E78087A02031CFE
:100DB400DC2EDD2EE42E7808FA027908031CFB03EE
:100DC400FB02E42E01300310F90CF80CFF3E031D66
:100DD400E52E0130FD02031DF02EF12ED32EF32E4D
:100DE400F32E7B08F901F9077A08F801F807FA2EBF
:100DF4000800F501F601710870040319022F032F8E
:100E0400412FF7010314F70D132F01300310F00DD8
:100E1400F10DFF3E031D082F0130F4007408F7079D
:100E2400132FF11F162F172F072F192F192F0130EA
:100E34000310F50DF60DFF3E031D1A2F7108730202
:100E4400031D262F70087202031C292F2A2F322F0C
:100E54007008F2027108031CF303F3027514322FB5
:100E640001300310F10CF00CFF3E031D332F013051
:100E7400F702031D3E2F3F2F192F412F412F7608D4
:100E8400F101F1077508F001F007482F0800C030A0
:100E9400831603139F008530831203139F00522F80
:100EA4001F19552F562F522F572F831603131E0821
:100EB40083120313A000A1011E08A200A3012208AB
:100EC400A300A20120082204A40021082304A500F1
:100ED4000330F0000030F1002508F301F307240883
:100EE400F201F2070A128A11FB260A128A1170080B
:100EF400FF3E83120313A40071080318013EFF3E52
:100F0400A500E830F0000330F1002508F301F307F1
:100F14002408F201F2070A128A11FB260A128A1126
:100F24007008303E0A128A1185260A128A110A3084
:100F3400F8000030F9006430F0000030F100831252
:100F440003132508F301F3072408F201F2070A1238
:100F54008A11FB260A128A117108FB01FB0770082B
:100F6400FA01FA070A128A11B7260A128A117808B6
:100F7400303E0A128A1185260A128A110A30F800B4
:100F84000030F9000A30F0000030F100831203133E
:100F94002508F301F3072408F201F2070A128A1163
:100FA400FB260A128A117108FB01FB077008FA017B
:100FB400FA070A128A11B7260A128A117808303EF3
:100FC4000A128A1185260A128A110A30F8000030A2
:100FD400F900831203132508FB01FB072408FA0117
:100FE400FA070A128A11B7260A128A117808303EC3
:0C0FF4000A128A1185260A128A110800D0
:02400E007AFF37
:00000001FF
