:060000000A128A11122809
:10000800FE00030EF0000408F1000A08F200831253
:1000180003137F08F3000A128A1115280A128A119D
:10002800712855308800F401F50102307502583006
:1000380003197402031C2128222824285028502838
:10004800F601F70100307702C83003197602031C65
:100058002E282F283128412841280130F607031877
:10006800F70A0030F70700307702C8300319760224
:10007800031C3F284028312841280130F407031881
:10008800F50A0030F507023075025830031974027A
:10009800031C4F28502824288B107308FF0072086F
:1000A8008A0071088400700E8300FE0E7E0E09001F
:1000B8008312031388018316031306148801810130
:1000C800D03083120313A00020088B046B2888010A
:1000D8006B286B280A128A11122883010A128A11C6
:0200E8005C2892
:00000001FF
