:100000000A128A11D02D00308A000408840A82075F
:1000100000342034203445346E3474346534723402
:10002000203474346834653420344B346534793486
:040030002034003444
:100B4800F0308316031386007F30F00070088105AB
:100B580008003734383439342F34343435343634A3
:100B68002A343134323433342D34433430343D3440
:100B78002B347E088A007F0882000A128A11BD255C
:100B88000A128A118000840A04087D0603190034B9
:100B9800FF0A0319FE0AC12DF901FA018313303047
:100BA800FD000530FE00AD30FF00203084000A1241
:100BB8008A11C1250A128A1183010A128A11422E4A
:100BC800F001F10103307102E93003197002031CCE
:100BD800EE2DEF2DF12D012E012E0130F007031817
:100BE800F10A0030F10703307102E930031970028D
:100BF800031CFF2D002EF12D012E080002300A12D1
:100C08008A1175260A128A1128300A128A11752645
:100C18000A128A110E300A128A1175260A128A11CE
:100C280006300A128A1175260A128A1180300A12B1
:100C38008A1175260A128A110800F600342E7608E1
:100C480084000A128A1103200A128A110A128A11D0
:100C5800B3260A128A110130F5007508F607342EFA
:100C6800760884000A128A1103200A128A110038B1
:100C7800031D3F2E402E232E412E080083160313FA
:100C880088010A128A1102260A128A110A128A1186
:100C9800A4250A128A1180300A128A1175260A12AE
:100CA8008A1101300A128A1121260A128A115C2E31
:100CB800C7300A128A1175260A128A110A128A1175
:100CC800F1260A128A11F7007708F80078080A1244
:100CD8008A11B3260A128A115C2E5C2E0A128A1116
:100CE8000028F4008312031308110F30F200720871
:100CF80088057408F039F2007208880488150A1209
:100D08008A11E4250A128A118312031388110A1220
:100D18008A11E4250A128A110F30F2007208831230
:100D2800031388057408F20003300310F20DFF3E28
:100D3800031D992E0310720DF039F300730888040F
:100D480088150A128A11E4250A128A1183120313DC
:100D580088110A128A11E4250A128A110800F4007F
:100D68008312031308150F30F200720888057408FF
:100D7800F039F2007208880488150A128A11E425ED
:100D88000A128A118312031388110A128A11E425A0
:100D98000A128A110F30F2007208831203138805B1
:100DA8007408F20003300310F20DFF3E031DD72E26
:100DB8000310720DF039F3007308880488150A12BD
:100DC8008A11E4250A128A118312031388110A1260
:100DD8008A11E4250A128A11080083120313860176
:100DE800F52E061EF82EF92E772F861EFC2EFD2EC8
:100DF800772F061F002F012F772F861B042F052F13
:100E0800F52E772F772F772F0610861586190D2F39
:100E1800112F831203130615142F831203130611BF
:100E28000619172F1B2F8312031386141E2F8312E4
:100E380003138610061E212F222F2E2F861E252FE4
:100E4800262F2E2F061F292F2A2F2E2F861B2D2FB8
:100E58002E2F302FFA01872F86100614061E352FE5
:100E6800362F432F861E392F3A2F432F061F3D2F2B
:100E78003E2F432F861B412F422F472F432FFA0126
:100E88000314FA0D872F06118614061E4C2F4D2FBA
:100E98005A2F861E502F512F5A2F061F542F552F69
:100EA8005A2F861B582F592F5F2F5A2F0230F000C8
:100EB8007008FA00872F86110615061E642F652F05
:100EC800722F861E682F692F722F061F6C2F6D2FA9
:100ED800722F861B702F712F772F722F0330F0001F
:100EE8007008FA00872F061E7A2F7B2F082F861E80
:100EF8007E2F7F2F082F061F822F832F082F861FF4
:100F0800862F872F082F061A8A2F8B2F992F861E38
:100F18008E2F8F2F992F061F922F932F992F861F71
:100F2800962F972F992FF901DB2F061E9C2F9D2FA7
:100F3800AD2F861AA02FA12FAD2F061FA42FA52FE6
:100F4800AD2F861FA82FA92FAD2FF9010314F90D76
:100F5800DB2F061EB02FB12FC22F861EB42FB52F40
:100F6800C22F061BB82FB92FC22F861FBC2FBD2F2B
:100F7800C22F0230F0007008F900DB2F061EC52FC3
:100F8800C62FDB2F861EC92FCA2FDB2F061FCD2F9A
:100F9800CE2FDB2F861BD12FD22FDB2F0330F00073
:100FA8007008F900DB2FDB2FDB2FDB2FDB2F061E72
:100FB800DE2FDF2FDB2F861EE22FE32FDB2F061F0E
:100FC800E62FE72FDB2F861FEA2FEB2FDB2FEC2FE7
:100FD8007A08F00002300310F00DFF3E031DEF2FDA
:100FE80020307007F10079087107F2007208840058
:080FF80083130008FF2F08001D
:02400E007AFF37
:00000001FF
