:100000000A128A11C32E00308A000408840A82076B
:1000100000347734773477342E3445346D34623499
:100020006534543472346F346E3469346334583404
:0A0030002E3463346F346D34003455
:100D860083010A128A11A12FF001F10103307102C9
:100D9600E93003197002031CD12ED22ED42EE42E74
:100DA600E42E0130F0070318F10A0030F107033092
:100DB6007102E93003197002031CE22EE32ED42ED1
:100DC600E42E080002300A128A1125270A128A1117
:100DD60028300A128A1125270A128A110E300A12A1
:100DE6008A1125270A128A1106300A128A11252726
:100DF6000A128A1180300A128A1125270A128A11CC
:100E06000800F600172F760884000A128A110320BC
:100E16000A128A110A128A1163270A128A110130EC
:100E2600F5007508F607172F760884000A128A114E
:100E360003200A128A110038031D222F232F062FA2
:100E4600242F0800F4008312031308110F30F20058
:100E5600720886057408F039F2007208860488154F
:100E66000A128A11C7260A128A11831203138811DD
:100E76000A128A11C7260A128A110F30F200720866
:100E86008312031386057408F20003300310F20D73
:100E9600FF3E031D492F0310720DF039F30073084E
:100EA600860488150A128A11C7260A128A11831225
:100EB600031388110A128A11C7260A128A1108001A
:100EC600F4008312031308150F30F200720886052A
:100ED6007408F039F2007208860488150A128A111D
:100EE600C7260A128A118312031388110A128A115D
:100EF600C7260A128A110F30F200720883120313F2
:100F060086057408F20003300310F20DFF3E031D40
:100F1600872F0310720DF039F300730886048815C5
:100F26000A128A11C7260A128A118312031388111C
:100F36000A128A11C7260A128A1108008316031399
:100F46008811081100300819013086000A128A112A
:100F5600E5260A128A1190300A128A1125270A12EA
:100F66008A1101300A128A1104270A128A11BB2F2C
:100F7600F701F8013A307802983003197702031C1A
:100F8600C52FC62FC82FD82FD82F0130F707031823
:100F9600F80A0030F8073A307802983003197702D9
:100FA600031CD62FD72FC82FD82F18300A128A1114
:100FB60025270A128A11F701F8013A30780298308B
:100FC60003197702031CE82FE92FEB2FBB2FBB2F4A
:100FD6000130F7070318F80A0030F8073A307802AC
:100FE600983003197702031CF92FFA2FEB2FBB2F2A
:0A0FF600BB2FBB2F0A128A1100283E
:02400E007AFF37
:00000001FF
