:03000000020003F8
:0C000300787FE4F6D8FD75812102004AE8
:07025F000510696E74657261
:0F021900759850758920758BFD758DFDD28E22DD
:08024F003098FDC298AF99221E
:080257008F993099FDC2992234
:1001AA008B0B8A0C890DAB0BAA0CA90D1200E0600F
:1001BA0013050DE50D7002050C14F91200E0FF128B
:0501CA00025780E22253
:0F022800000000000000000000000000000022A5
:0B024400E4F5207F071202378F202214
:070267007D707F27020208F1
:10008F00C294D293C292C2947DFF7FE21202087D86
:10009F000F7F201202087D017F211202087D037F4E
:1000AF00231202087D6E7F251202087D067F26121D
:1000BF0002087D017F221202087B007A00791075F9
:1000CF000F057F2A1201267D017F31120208D2947B
:0100DF0022FE
:100180008F21E4FFFEA20F9291E52125E0F521D217
:10019000925321FEA290E4334221C2920FBF00018C
:0901A0000EEF64084E70DEAF2181
:0101A9002233
:10020800C293120180AC07AF05120180D293AF04EC
:0102180022C3
:060126008B0C8A0D890E0E
:10012C00C293120180AD07E4FCECC3950F5015ABE4
:10013C000CAA0DA90E8C827583001200F9FF120116
:08014C00800C80E5D293AF05A1
:010154002288
:0C023700C293120180E4FF120180D293F8
:010243002298
:1001CF00C2931201808F0BE4FCECC39D500EE4FF31
:1001DF0012018074152CF8A6070C80ED74152CF8FD
:0401EF00E4F6D293CD
:0101F30022E9
:100155007DFF7FE21202081202443006FA30061AC9
:10016500120267120244E52070107D017F611201C1
:0B017500CF1202287B007A00791522CF
:1001F40012021912008F1201558B088A09890A12FA
:0402040001AA80F2D9
:10000F000201F4E493A3F8E493A34003F68001F212
:10001F0008DFF48029E493A3F85407240CC8C333F2
:10002F00C4540F4420C8834004F456800146F6DFC1
:10003F00E4800B010204081020408090025FE47EF0
:10004F00019360BCA3FF543F30E509541FFEE493B6
:10005F00A360010ECF54C025E060A840B8E493A37D
:10006F00FAE493A3F8E493A3C8C582C8CAC583CAA8
:10007F00F0A3C8C582C8CAC583CADFE9DEE780BE60
:010266000097
:1000E000BB010689828A83E0225002E722BBFE021E
:0900F000E32289828A83E4932251
:1000F900BB010CE58229F582E5833AF583E02250BC
:1001090006E92582F8E622BBFE06E92582F8E22205
:0D011900E58229F582E5833AF583E493221F
:00000001FF
