:100000000A128A11762D00308A000408840A8207B9
:1000100000342034203449343234433420345434CE
:10002000753454346F347234693461346C34203430
:100030002034003445346D346234653454347234C1
:100040006F346E3469346334583400345234653458
:100050006134643469346E3467342E342E342E3473
:100060000034573472346934743469346E3467340C
:080070002E342E342E3400342E
:100AEC00F501F60183010A128A11402F7D2D831224
:100AFC0003138C1D822D832D7D2D8C1108008316E4
:100B0C00031311140A128A117C250A128A11080087
:100B1C008316031311150A128A117C250A128A11E5
:100B2C0008008316031391140A128A117C250A12E9
:100B3C008A11080083160313911611160A128A11D2
:100B4C007C250A128A1108008316031391150A12C8
:100B5C008A117C250A128A11831203131308B62DED
:100B6C000800F00070088312031393000A128A1114
:100B7C007C250A128A11C32DB82D83160313111B61
:100B8C00C82DC92DB82DCA2D0800831603130716BE
:100B9C00071AD12DD52D831603138715D82D83163F
:100BAC00031387112830831203139400FF3083162C
:100BBC00031393000800F200F42D720884000A124B
:100BCC008A1103200A128A110A128A1154260A1257
:100BDC008A110130F1007108F207F42D72088400BB
:100BEC000A128A1103200A128A110038031DFF2DE4
:100BFC00002EE32D012E0800831603130711871016
:100C0C000710003007180130860038300A128A119C
:100C1C0024260A128A110C300A128A1124260A126E
:100C2C008A1106300A128A1124260A128A1180307F
:100C3C000A128A1124260A128A110800F000700880
:100C4C00831203138600071087100715F501F601B0
:100C5C007608803AFF0083307F02031D372EE83080
:100C6C007502031C3A2E3B2E3D2E502E502E013079
:100C7C00F5070318F60A0030F6077608803AFF00ED
:100C8C0083307F02031D4C2EE8307502031C4F2E5F
:100C9C00502E3D2E8312031307110800F00070082C
:100CAC00831203138600071487100715F501F6014C
:100CBC007608803AFF0083307F02031D672EE830F0
:100CCC007502031C6A2E6B2E6D2E802E802E013029
:100CDC00F5070318F60A0030F6077608803AFF008D
:100CEC0083307F02031D7C2EE8307502031C7F2E9F
:100CFC00802E6D2E8312031307110800F001F101F1
:100D0C00EA307102603003197002031C8E2E8F2E94
:100D1C00912EBE2EBE2EF201F30100307302023072
:100D2C0003197202031C9B2E9C2E9E2EAE2EAE2EF1
:100D3C000130F2070318F30A0030F3070030730296
:100D4C00023003197202031CAC2EAD2E9E2EAE2E59
:100D5C000130F0070318F10A0030F107EA30710294
:100D6C00603003197002031CBC2EBD2E912EBE2EBA
:100D7C000800F3000A128A1185250A128A11A03084
:100D8C000A128A11B7250A128A1100300A128A1126
:100D9C00B7250A128A1173080A128A11B7250A128A
:100DAC008A11E92E710884000A128A1103200A1292
:100DBC008A110A128A11B7250A128A110130F2001F
:100DCC007208F107E92E710884000A128A110320B7
:100DDC000A128A110038031DF42EF52ED82EF62E89
:100DEC000A128A118E250A128A110800F2000A12C0
:100DFC008A1197250A128A11A030831203139300CB
:100E0C000A128A117C250A128A110D2FFD2E8316C7
:100E1C000313111B122F132FFD2E142F00300A1247
:100E2C008A11B7250A128A1172080A128A11B7257B
:100E3C000A128A110A128A1197250A128A11A130F4
:100E4C000A128A11B7250A128A110A128A11AA25C6
:100E5C000A128A11F1007108F3000A128A11A025F6
:100E6C000A128A110A128A118E250A128A11730823
:100E7C003F2F08000A128A1102260A128A110A123E
:100E8C008A11CB250A128A1101300A128A11E12526
:100E9C000A128A11C2300A128A1124260A128A11E5
:100EAC0029300A128A11E1250A128A111230F40033
:100EBC007408F10000300A128A11BF260A128A1136
:100ECC000A128A1184260A128A11C2300A128A1155
:100EDC0024260A128A111E300A128A11E1250A12DE
:100EEC008A110A128A1184260A128A11C2300A1235
:100EFC008A1124260A128A1100300A128A11FC2641
:100F0C000A128A110A128A1154260A128A11013005
:100F1C000A128A11FC260A128A110A128A11542604
:100F2C000A128A1102300A128A11FC260A128A113C
:100F3C000A128A1154260A128A1103300A128A11D3
:100F4C00FC260A128A110A128A1154260A128A11D4
:100F5C0004300A128A11FC260A128A110A128A110A
:100F6C0054260A128A1105300A128A11FC260A121A
:100F7C008A110A128A1154260A128A1106300A1290
:100F8C008A11FC260A128A110A128A1154260A1294
:100F9C008A1107300A128A11FC260A128A110A12C7
:100FAC008A1154260A128A1108300A128A11FC2658
:100FBC000A128A110A128A1154260A128A1109304D
:100FCC000A128A11FC260A128A110A128A11542654
:100FDC000A128A110A300A128A11FC260A128A1184
:100FEC000A128A1154260A128A11FC2FFC2F0A129B
:040FFC008A1100282E
:02400E007AFF37
:00000001FF
