:020000040800F2
:10000000688C002001030008090300080B030008A6
:100010000D0300080F030008110300080000000092
:100020000000000000000000000000003D02000889
:100030001503000800000000D5020008E5020008D2
:100040001B0300081B0300081B0300081B03000818
:100050001B0300081B0300081B0300081B03000808
:100060001B0300081B0300081B0300081B030008F8
:100070001B0300081B0300081B0300081B030008E8
:100080001B0300081B0300081B03000800000000FE
:100090000000000000000000000000001B0300083A
:1000A0001B0300081B0300081B0300081B030008B8
:1000B0001B0300081B0300081B0300081B030008A8
:1000C0001B0300081B0300081B0300081B03000898
:1000D0001B0300081B0300081B03000800000000AE
:1000E0001B0300081B0300081B030008000000009E
:1000F0000000000000000000000000001B030008DA
:10010000000000001B0300081B0300081B0300087D
:1001100000000000000000000000000000000000DF
:100120001B0300081B0300081B0300081B03000837
:100130001B03000800000000000000000000000099
:100140000000000000000000000000001B03000889
:100150001B0300081B0300081B0300081B03000807
:100160001B0300081B030008000000000000000043
:10017000000000000000000000000000000000007F
:10018000000000001B030008000000000000000049
:100190001B03000800F002F800F03CF80AA090E809
:1001A000000C82448344AAF10107DA4501D100F032
:1001B00031F8AFF2090EBAE80F0013F0010F18BFC3
:1001C000FB1A43F001031847D4270000F42700006E
:1001D000103A24BF78C878C1FAD8520724BF30C873
:1001E00030C144BF04680C60704700000023002445
:1001F00000250026103A28BF78C1FBD8520728BF37
:1002000030C148BF0B6070471FB502F02AFB1FBD0D
:1002100010B510BD00F05FF9114603B400F05AFCB0
:1002200003BCFFF7F1FF00F0ADFD00F079F903B476
:10023000FFF7EEFF03BC00F081F900001EF0040F91
:100240000CBFEFF30880EFF30980816911F8021CFD
:1002500091BB01B590E80F10E047BDE800508CE875
:100260000300244B93E80600914208BF704741B950
:100270001EF0100F10D12049086820F0010008601E
:100280000AE02CE9F00F1EF0100F08BF2CED108AC9
:10029000C1F838C081F822E01A6092F82210906B01
:1002A00061F0FF0E1EF0100F08BFB0EC108AB0E82E
:1002B000F00F80F309887047104A13689942FAD802
:1002C00001B552F821C00FC8E047BDE80050CCF896
:1002D0000000704701B501F0E9F8BDE80140EFF317
:1002E000098CBEE701B501F0DFFBBDE80140EFF38B
:1002F000098CB6E71800002034EF00E02C29000834
:100300000948804709480047FEE7FEE7FEE7FEE7A9
:10031000FEE7FEE7FEE7FEE7FEE7FEE704480549E5
:10032000054A064B7047000089090008950100083E
:1003300068860020688C002068880020688800207B
:10034000032A40F2308010F0030C00F0158011F801
:10035000013BBCF1020F624498BF11F801CB00F8D9
:10036000013B38BF11F8013BA2F1040298BF00F82D
:1003700001CB38BF00F8013B11F0030300F0798096
:10038000083AC0F0088051F8043B083A51F804CB11
:10039000A0E80810F5E7121D5CBF51F8043B40F8D7
:1003A000043BAFF30080D20724BF11F8013B11F8E2
:1003B00001CB48BF11F8012B24BF00F8013B00F826
:1003C00001CB48BF00F8012B704702F0FF0343EA5E
:1003D000032242EA024200F024B84FF0000204294E
:1003E000C0F0128010F0030C00F01B80CCF1040C64
:1003F000BCF1020F18BF00F8012BA8BF20F8022B98
:10040000A1EB0C0100F00DB85FEAC17C24BF00F83D
:10041000012B00F8012B48BF00F8012B70474FF06B
:10042000000200B5134694469646203922BFA0E844
:100430000C50A0E80C50B1F12001BFF4F7AF090750
:1004400028BFA0E80C5048BF0CC05DF804EB890041
:1004500028BF40F8042B08BF704748BF20F8022B84
:1004600011F0804F18BF00F8012B7047704770479C
:10047000704710B5203AC0F00B80B1E81850A0E8E2
:100480001850B1E81850A0E81850203ABFF4F5AF62
:100490005FEA027C24BFB1E81850A0E8185044BFBE
:1004A00018C918C0BDE810405FEA827C24BF51F82B
:1004B000043B40F8043B08BF7047D20728BF31F81F
:1004C000023B48BF11F8012B28BF20F8023B48BF70
:1004D00000F8012B7047754600F02CF8AE46050079
:1004E0006946534620F00700854618B020B5FFF74F
:1004F00015FFBDE820404FF000064FF000074FF019
:1005000000084FF0000BAC46ACE8C009ACE8C009ED
:10051000ACE8C009ACE8C00921F007018D4670477E
:1005200010B50446AFF300802046BDE81040FFF749
:100530007EBE000000487047A80000200149182036
:10054000ABBEFEE7260002007047000070470000C7
:1005500070470000704700007047000070470000BF
:1005600070470000704700007047000070470000AF
:10057000704700007047000070470000704700009F
:10058000704700007047000070470000704700008F
:10059000704700007047000070470000704700007F
:1005A000704700007047000070470000704700006F
:1005B000704700007047000070470000704700005F
:1005C000704700007047000070470000704700004F
:1005D000704700007047000070470000704700003F
:1005E000704700007047000070470000704700002F
:1005F000704700007047000070470000704700001F
:10060000704700007047000070470000704700000E
:1006100070470000704700007047000070470000FE
:1006200070470000704700007047000070470000EE
:1006300070470000EFF3108000281CBF01207047B6
:10064000EFF31180002818BF01207047EFF31080EE
:1006500000281CBF01207047EFF31180002818BF4D
:1006600001207047EFF3108000281CBF0120704765
:10067000EFF31180002818BF01207047EFF31080BE
:1006800000281CBF01207047EFF31180002818BF1D
:1006900001207047EFF3108000281CBF0120704735
:1006A000EFF31180002818BF01207047EFF3058099
:1006B000002818BF01207047EFF30580002818BFFD
:1006C00001207047EFF30580002818BF0120704714
:1006D000EFF30580002818BF01207047EFF3058075
:1006E000002818BF01207047EFF31480012121EA90
:1006F0000000704743F63000C4F20200016840F683
:10070000184441F008010026C4F2020401604FF0D1
:1007100055304FF6FF75CFF6FF7644F8180C00BF42
:100720004FF47A70256000F045FB4FF47A70266034
:1007300000F040FBF4E7000043F63000C4F2020092
:10074000016841F2180441F010010026C4F20204CD
:1007500001604FF055304FF6FF75CFF6FF7644F845
:10076000180C00BF40F6B830256000F023FB40F6BF
:10077000B830266000F01EFBF4E700000844704724
:100780007047000010B50446283000F0E7F958B172
:10079000E46A4CB1A01C00F03FFA18B1A468002C28
:1007A000F8D10024204610BD0024204610BD0000D2
:1007B00010B584465CF8303F5BB191F803E0DA781D
:1007C00072450BD21A465B686BB1DC787445F9D37D
:1007D00005E00022C1E90122C1620DE00022C1E969
:1007E0000132083303E0C1E9013200F12C03196042
:1007F000002A18BF02F1040C2830CCF8001000F0D9
:10080000E5F910BDD1E9012C02F10803002A08BF67
:1008100000F12C03C3F800C0D1E90112131D002A16
:1008200008BF00F130031960704700004EF210005D
:10083000CEF200000068704740F20810C2F20000DB
:100840000178012908D1002101704EF60450CEF242
:1008500000004FF0806101604EF21000CEF2000007
:10086000016841F001010160704700004FF0FF3066
:100870007047000058B140F20001C2F2000109685F
:10088000B1FBF0F0411E0020B0EB116F02D04FF031
:10089000FF3070474EF62352CEF20002FF23137052
:1008A0004EF21002CEF2000206231360516040F2B5
:1008B0000811C2F20001906008707047B0B54EF6A2
:1008C0002254CEF20004FF202070207880F0FF0038
:1008D000B0FA80F0C0F1200500F0C4F8A84228BFAB
:1008E000451CFE20A84004F8030CB0BD4EF6045091
:1008F000CEF200004FF0805101607047C0064FF00B
:10090000200058BF6020704743F60400C4F2020084
:10091000416801F00C0242F20041082AC0F2F401E1
:1009200006D0042A1DD147F64001C0F27D1118E01F
:1009300002680368520247F64002C0F27D1203F0DB
:100940003F0358BF0A460168B2FBF3F20368C1F3E4
:1009500088115143C3F30142022303EB4202B1FB6E
:10096000F2F140F20002C2F200021160406842F669
:100970001C11C0F30310C0F60001085C116821FAD5
:1009800000F01060704700004EF68850CEF2000074
:10099000016841F4700101604FF0006140F8801C73
:1009A0007047000080B5930706D4D20700F12800F5
:1009B00015D100F0A7F880BD836A02F0010203EAB6
:1009C000010040EA020C8842184618BF0020002AA5
:1009D00008BF1846BCF1000F08BF604680BD00F09C
:1009E0007DF880BD10B540F2040CC2F2000CDCF8BA
:1009F0004430FBB11A698A4206D9B3FA83F24FEA4E
:100A0000521E00240BE000BF1C46DB68891A93B11C
:100A10001A699142F8D2B3FA83F24FEA521EBEF13C
:100A2000000FC0E90243016108D11A699860511AA8
:100A3000196103E00024C0E90243016104F10C01E3
:100A4000002C08BF0CF14401086010BDC1680029EA
:100A50001CBF82688A60C06840F20401C2F20001D3
:100A6000486470474EF60C50CEF200000068C0F3A8
:100A70000220704710B5044601F0DAF8002808BFDC
:100A800010BD20684FF0FF3100F056FA10BD000095
:100A900080B5006800F06CFA80BD000010B5044617
:100AA000002000F07FFA002820601CBF012010BD4C
:100AB0000520214600F0AAFA002010BD10B504461A
:100AC00001F0B6F8002808BF10BD206800F084FAD5
:100AD00010BD000080B500F09BF980BD10B550E856
:100AE000002F02EA01038B4203D0BFF32F8F0022B5
:100AF00005E022EA010340E8003404B1EFE71046C4
:100B000010BD000010B550E8002F0A4203D1BFF31A
:100B10002F8F002205E022EA010340E8003404B1EF
:100B2000F1E7104610BD000040F20400C2F20000E0
:100B30005630D0E85F1F11B9BFF32F8F04E04A1E73
:100B4000C0E8532F03B1F4E788B2704750E8001FA4
:100B50004A1E40E8002303B1F8E7704750E8001F41
:100B600011B9BFF32F8F04E04A1E40E8002303B100
:100B7000F4E708467047000010B5D0E85F2F531C1B
:100B8000994200D80023C0E8543F04B1F5E790B281
:100B900010BD000010B540F20401C2F20001563150
:100BA000D1E85F2F904202D8BFF32F8F04E0531C8F
:100BB000C1E8543F04B1F3E790B210BD50E8001F04
:100BC0004A1C40E8002303B1F8E7704750E8001FD3
:100BD0004A1C40E8002303B1F8E7704750E8001FC3
:100BE00011B9BFF32F8F04E00A6840E8002303B176
:100BF000F4E708467047000010B502680A60BFF3CA
:100C00005F8F50E8002F0B689342F6D140E8001444
:100C100004B1F2E710BD00000121D0E84F2FC0E879
:100C2000431F03B1F9E7D0B270470000F0B581B0BF
:100C30001F4616460C4600F049FB0546F8B1F7B9C9
:100C4000ECB12878FA281AD12846FFF79BFD00B3AB
:100C50006A6A074600F10C012046FFF771FB002E7F
:100C60001CBFF87830703846FD6000F017FC00F0CB
:100C70004FFC28462146FFF7A7FC002406E0284643
:100C80006FF003016FF00304FFF786FC204601B00C
:100C9000F0BD28462146FFF78FFC6FF00204F5E710
:100CA0002DE9F0411E4690460C4600F00FFB05462C
:100CB00018B316BB0CB32878FA281ED105F10C0026
:100CC00000F096FA18B36A6A06460C302146FFF720
:100CD00037FBF920307000273046B77086F8038064
:100CE000C6E9014500F0DAFB00F012FC2846214677
:100CF000FFF75AFC3846BDE8F08128466FF0030143
:100D00006FF00307FFF748FC3846BDE8F08128463E
:100D10002146FFF74FFC6FF00200BDE8F0810000B4
:100D2000B0B540F20405C2F20005B5F85440FFF733
:100D3000FBFE50B105F15A002146FFF71DFFE96D9A
:100D400051F8200000F0AEFBB0BD0020B0BD0000A7
:100D500070B540F20406C2F20006B6F854500446DC
:100D60002846FFF717FFA84224BF002070BD06F1F8
:100D700058002946FFF700FFF16D41F8204001209F
:100D800070BD0000FFF7C0FD00F042F840F2F560D2
:100D9000C0F600000021002200F02CFF40F2397064
:100DA000C0F600000021002200F024FF00F04AF805
:100DB000FEE7000010B50446FFF7C8FBFFF776FC1E
:100DC00010B9FFF737FC38B16FF005006FF005047C
:100DD000FFF7C0FB204610BD41F6514C2046C0F63F
:100DE000000C00DF10BD000080B5FFF765FC28B9DE
:100DF000FFF72CFC10B9FFF777FC10B100F03CFFB7
:100E000080BD41F6794CC0F6000C00DF80BD0000CB
:100E100010B500F00FF9FFF7A7FBFFF74DFC10B975
:100E2000FFF714FC38B16FF005006FF00504FFF711
:100E300097FB204610BD41F6894CC0F6000C00DF40
:100E400010BD000010B5FFF793FBFFF735FC10B99C
:100E5000FFF7FCFB38B16FF005006FF00504FFF7FA
:100E60007FFB204610BD41F6ED5CC0F6000C00DFB4
:100E700010BD0000F0B581B01C4615460E46074671
:100E8000FFF78CFBFFF71EFC10B9FFF7EBFB38B147
:100E9000384631462A462346FFF7C8FE01B0F0BD6A
:100EA00041F66D6C3846C0F6000C31462A462346A2
:100EB00000DF01B0F0BD000070B514460D460646D7
:100EC000FFF776FBFFF7FEFB10B9FFF7CBFB38B15E
:100ED00000206FF005010024FFF75EFB204670BD87
:100EE00041F6A17C3046C0F6000C2946224600DFC0
:100EF00070BD0000F0B581B01C4615460E46074691
:100F0000FFF75CFBFFF7DEFB10B9FFF7ABFB38B177
:100F1000384631462A462346FFF7C2FE01B0F0BDEF
:100F200042F2491C3846C0F6000C31462A46234698
:100F300000DF01B0F0BD0000B0B50D460446FFF77C
:100F400045FBFFF7C5FB10B9FFF798FB40B1204602
:100F50006FF005016FF00504FFF746FB2046B0BDBA
:100F600042F25D2C2046C0F6000C294600DFB0BDE1
:100F700010B50446FFF734FBFFF7AAFB10B9FFF7E3
:100F80007DFB40B120466FF005016FF00504FFF7CF
:100F90002BFB204610BD42F2453C2046C0F6000C1B
:100FA00000DF10BD10B50446FFF720FBFFF790FBF4
:100FB00010B9FFF763FB38B100206FF00501002482
:100FC000FFF712FB204610BD42F2214C2046C0F62E
:100FD000000C00DF10BD000010B50446FFF70AFB4F
:100FE000FFF776FB10B9FFF749FB40B120466FF0E1
:100FF00005016FF00504FFF7F7FA204610BD42F235
:10100000B14C2046C0F6000C00DF10BDFEE700002A
:101010007047000070470000FEE7000040F2040047
:10102000C2F20000007A704740F20400C2F20000F1
:10103000007A70477047000040F20400C2F20000DE
:10104000007A70472DE9F04381B0904606460028AB
:101050000D4618BF002D0AD13046294642460023CE
:101060000027FFF789FA384601B0BDE8F083B8F1F0
:10107000040FF1D205F10F0020F0070430460821DB
:10108000FFF77CFB074600BFD7E90001C21B21F038
:101090000301511AA1420BD2016807460029F3D17E
:1010A00030462946424600230027FFF765FADAE773
:1010B0003046FFF765FBD0E9002101EB0409C0F8D9
:1010C0000490A2F108013046FFF758FB41684945FA
:1010D00038BFC0F80490786860B120F0030138464A
:1010E000FFF74CFB396844EA0802C0E90012386097
:1010F000074602E044EA0800786038460821FFF716
:101100003DFB07463046294642463B46FFF734FA48
:10111000A9E700002DE9F0418846054600284FF078
:10112000000618BFB8F1000F07D1284641463246E5
:10113000FFF72AFA3046BDE8F0814046002100273B
:10114000FFF71CFBA0F1080428460821FFF716FB57
:101150000646A04205D000BF3746366886B1A64293
:10116000FAD1706820F003042846FFF709FB4168B4
:10117000A1EB040141602FB1306801263860D4E74B
:101180000026D2E7002070600126CEE7F0B581B0DE
:1011900005460C4608B1680708D0284621460022BB
:1011A0000024FFF7F3F9204601B0F0BD182CF4D36A
:1011B00014F00700F1D12846FFF7E2FA1027C0E942
:1011C000004728460821FFF7D9FA0646A4F108018E
:1011D0002846FFF7D3FA0021306001603068012211
:1011E00047607160284621460124FFF7CFF9DAE70E
:1011F000B0B558B105461430FFF7F0FC044610B105
:10120000281DFFF7DBFC2846214602E000200021D4
:101210000024FFF7B3F92046B0BD0000B0B5054685
:101220000C4690B1E868A0420FD82869A0420CD9BA
:1012300005F114002146FFF7DFFC281DFFF786FCAF
:10124000284621460022002405E0284621466FF06A
:1012500003026FF00304FFF793F92046B0BD0000CE
:10126000F0B581B00E46014600284FF0000018BFCF
:10127000002E01D101B0F0BD1446002AFAD01D465F
:10128000002BF7D004FB06500027C1E90067C1E935
:101290000245C1E904050846314622462B46FFF7C0
:1012A00071F9012E07D07042291901302960421CC2
:1012B0000D46F9D100E0294601200F6001B0F0BDD4
:1012C0007047000070470000704700007047000042
:1012D00070470000704700002DE9F0410446807817
:1012E00000283ED0E56821462846FFF78BFA00200B
:1012F00005F10C06207030462146FFF78FFFA868E5
:10130000002868D03046FFF773FF002808BFBDE80B
:10131000F0810446284600F0C1F800F0A1FA00214F
:10132000002206464FF0000800F0A8FB304600F00F
:1013300019FB87686A6A064604F10C003946FEF715
:10134000FFFFF9202070F0682146E070284684F8FD
:101350000280FFF72DFA28463946FFF727F9BDE846
:10136000F081A5686168A86870B3407883282BD1A4
:101370002846FFF71BF9284600F090F800F070FAB5
:101380000021002206464FF0000800F077FB3046AF
:1013900000F0E8FA86686A6A074604F10C013046F4
:1013A000FEF7CEFFF86800281CBFE17801702846E0
:1013B0003146FFF709F905F10C00214684F8008059
:1013C000FFF72CFFBDE8F0812846FFF7EFF828462D
:1013D0002146FFF7EDF9BDE8F081000070470000FD
:1013E000704700002DE9F041002808BFBDE8F081FA
:1013F000044600274FF0010801E000BF2CB3E0785D
:10140000254664690007F9D5284600212F76FFF7A5
:10141000F3F8A8680028F1D0284600F041F800F061
:101420001FFA00210022064600F028FBF06AEE6059
:101430002F610028686118BF056128460121F56207
:1014400085F81880FFF7C8F8D8E7BDE8F0810000FC
:1014500080B5C27892071FD5C06890F821C0C36AD2
:1014600002E000BF5B6973B19A688A4208BF926864
:10147000002AF7D092F920E04FFA8CF29645C8BFC7
:101480005FFA8EFCEEE790F82010614508BF80BD42
:1014900080F820C000F022FA80BD000070470000F4
:1014A000704700007047000070470000B0B5FFF7BC
:1014B00037FC48B340F20404C2F2000404E000BF69
:1014C000A847FFF72DFCF8B10178F1390829F8D8C1
:1014D000DFE801F00A090E09091216090500256F57
:1014E000FFF7F2FEECE7ECE7256E00F00FFAE7E716
:1014F000656EFFF78DFDE3E7A56E00F01FF8DFE7EF
:10150000E56EFFF7DDFEDBE7002000F02FF9B0BD50
:1015100010B50446FFF71CFC58B140F20400C2F2BB
:101520000000417A00291ABF01218172FFF7DEF91C
:1015300010BD02202146FFF769FD10BD7047000075
:1015400070470000B0B504460120607040F204000E
:10155000C2F2000094F920501C3000F0D9F900BF0D
:101560000146806848B190F92020AA42F8DCC4E91D
:1015700002018C6000F10C0203E001F10802C4E9F1
:10158000020120461460FFF74DF8B0BD10B54A1CAB
:101590001CD040F2040CC2F2000CDCF82C20B2FA91
:1015A00082F34FEA531E5AB3D4698C4202D9002306
:1015B00027E000BF13461269091BB2FA82F44FEA12
:1015C000541EF2B1D469A142F4D21AE040F20401EF
:1015D000C2F2000101F13004002321461A460B68D3
:1015E000002B03F11001F9D14FF0FF31C16100214F
:1015F0000161002A426118BF02F11004206010BD91
:10160000002303F11004002BC161C0E9042308BFCB
:101610000CF12C04BEF1000F206018BF10BDD3697F
:1016200002F11404591AD161206010BDC269016928
:10163000531C0ED021B1CB691A444369CA614B6176
:10164000D0E9041262B940F20400C2F20000C162A3
:10165000704700291CBF42694A61D0E904121AB1DF
:10166000116100214161704740F20400C2F20000A4
:101670000163704770B540F20406C2F20006F46AD6
:10168000002C00F07180E0690138E06118BF70BD86
:10169000607813384FEA301008284FD8DFE800F0A0
:1016A000054E090D1726303A44002046FEF750FF3C
:1016B00044E02046FEF7B0FF40E0204600F004F989
:1016C000FFF7F2FEFFF7A6FCFEF748FF36E02046E4
:1016D00000F0FAF8FFF7E8FEFFF782FE2146054624
:1016E000FFF7B6FE2846FEF775FF27E0204600F01C
:1016F000EBF8FFF7D9FEFFF723FFFEF77FFF1DE0B2
:10170000204600F0E1F8FFF7CFFEFFF7DBFDFEF724
:101710003FFF13E0204600F0D7F8FFF7C5FEFFF7C4
:10172000D9FDFEF73FFF09E0204600F0CDF8FFF7B6
:10173000BBFEFFF7CFFDFEF745FF00BF204600F0E0
:1017400011F901682046FEF771FF204600F0AEF85F
:10175000204600F0FBF824692CB1E06900283FF432
:1017600097AF00206061F46270BD000070B505465F
:10177000FFF75AFC064600F06BF804465DB1022EF6
:1017800005D195F9200094F92010884216DC2846EE
:1017900000F0DCF870BD022EFCD140F20400C2F271
:1017A0000000456A002DF5D095F9200094F920102D
:1017B0008842D8BF70BD284600F078F82046FFF771
:1017C000C1FE284600F01CF970BD000010B50446AB
:1017D000807800218207218013D5C00608D440F20A
:1017E0000400C2F20000406F216BFFF793FC08E099
:1017F00040F20400C2F20000D0F88400216BFFF731
:101800000DFDA078C00708BF10BD40F20401C2F270
:101810000001D1F8880018B12146FFF7FFFC10BD88
:10182000D1F880002146FFF775FC10BD40F204009E
:10183000C2F200004069704740F20400C2F20000AA
:101840004069704740F20400C2F2000040697047EE
:1018500040F20400C2F20000406970477047000087
:10186000B0B58468A568856015B100F051F8E860EE
:1018700000212046E160B0BDB0B591F920500C4682
:1018800000F046F80146806850B190F92020AA4245
:10189000F8DA00F10C02C4E902018C601460B0BDFA
:1018A00001F10802C4E902011460B0BDC168002959
:1018B00008BF704782688A60816800291CBFC268BF
:1018C000CA600021C16070470178F12918BF7047D4
:1018D000C0680178F129FBD070470000B0B504461C
:1018E00030B120460178F12902D1C0680028F9D131
:1018F000FFF7DAFD002808BFB0BD05462046FFF718
:10190000D5FF28462146FFF7B7FFB0BD704700005E
:1019100070470000B0B504464078332815D1616A9D
:1019200094F823202046FFF73DF8002808BFB0BDFB
:10193000054620462946002200F0A0F8606A94F887
:1019400023102A462346FEF765FEB0BD80B501464A
:101950000120487040F20400C2F200001C30FFF782
:101960008BFF80BD10B5846B90F82200FEF7C6FF98
:10197000204410BD40F20400C2F200000021416189
:101980007047000080B5FFF763FF78B10146006B38
:101990008A6B824207D9006842F6A562CEF25A22CB
:1019A000904208BF80BD0120FFF730FB80BD0000E2
:1019B00070B542F67C04C0F6000441F21900A26D35
:1019C000C0F60000666E002100F02CFEFFF746FF17
:1019D00040F20405C2F20005A86276B1E26D41F65C
:1019E0002D30C0F60000002100F01CFEFFF736FF8E
:1019F000A864002818BF012070BD012070BD000040
:101A000010B504460220607040F20400C2F20000EB
:101A10008461FFF7B7FF2046FEF706FE10BD000009
:101A20002DE9F04381B00D468046FFF7FDFA40F204
:101A30000409C2F20009D9F824600446022812D130
:101A40008EB1FFF705FF29460746FEF7D9FD384658
:101A5000294687F80180FFF799FD09F11C00FFF77F
:101A6000FFFEFFF7CDFFA01EB0FA80F04009002E68
:101A700018BF0126304001B0BDE8F08370B51546AF
:101A80000E460446FEF7D2FD2046FFF76BFF0660C8
:101A90002046FFF7CBFD204615B1FFF767FE70BD6E
:101AA000FFF754FF70BD000070B5FEF7BFFE40F2B7
:101AB0000405C2F20005E968286D01310028E960DB
:101AC00018BF8047FFF7D6FD0020FFF74FFE286CB8
:101AD00068B1A969AE6B8E421CBFC5E90E1070BD1E
:101AE000E86B00281CBF0138E863E86B00B170BDEB
:101AF000FFF794FA0228FAD16C6A002CF7D094F818
:101B0000200096F82010884218BF70BD2046FFF7CD
:101B1000CDFEA86BFFF71AFFA86BFEF783FD2046EA
:101B2000FFF76EFF286CC5E90E4070BD82B042F62B
:101B30007C00C0F60000D0E918200821FFF7BCF9AE
:101B4000FFF7C6FB40F2040541F68131C2F2000501
:101B5000C0F600016C46C5E9130100BFE86C2146E0
:101B600000224FF0FF33FFF785F90028F6D1DDE9B9
:101B70000001FEF75DFDDDE900108847EEE700009B
:101B800070B540F20405C2F200056C6C14B3206914
:101B900001260138206102E066706C6CD4B12069C6
:101BA000002818BF70BD2046FEF750FFE86C04F116
:101BB000180100220023FFF79DF918B103202146E8
:101BC000FFF724FAE0780128E6D161692046FEF7A4
:101BD00009FFE2E770BD0000FEF71AFD42F2AD5CBE
:101BE000C0F6000C00DF00204FF0FF31FEF70EFDC5
:101BF000FEE7000070B514460D460646FEF710FDE0
:101C0000FEF76CFD10B9FEF745FD38B100206FF00E
:101C100005010024FEF7FAFC204670BD42F2256C57
:101C20003046C0F6000C2946224600DF70BD000099
:101C300010B548F26064C2F20004207828B9FFF7BA
:101C4000D3F80228A4BF01202070207810BD000026
:101C500010B570B1044613202146FFF7E1FE20B114
:101C60002046FEF779FC002010BDFFF7DFFDFEF7F0
:101C70006FFC002010BD000010B5FFF7DDF9044631
:101C8000FEF770FC204610BD2DE9F04140F204073C
:101C9000C2F20007387A58B1012800F0A1804FF055
:101CA000FF304FF0FF34FEF75BFC2046BDE8F081CB
:101CB00007F108009C21FEF7B2FB42F67C08C0F653
:101CC0000008D8E90201D8F82C40F965B8F81020CE
:101CD000D8F8301038642046A7F85420FFF756FA99
:101CE000002818BFC7F88040D8E90541D8E9075651
:101CF0002046FFF74BFAD7F88010002818BF21467E
:101D0000796728463146FFF741FAD7F88020002846
:101D100018BF2A46D8E90951BA672846FFF736FAAC
:101D2000D8F83440D7F88010002818BF2946F96742
:101D30003CB12168D4E902232046FFF791FAC7F8A5
:101D40008440D8F838403CB12168D4E902232046C9
:101D5000FFF786FAC7F88840D8F83C403CB12168C4
:101D6000D4E902232046FFF77BFAC7F88C40D8F865
:101D700040403CB12168D4E902232046FFF770FAC5
:101D8000C7F89040D8F844403CB12168D4E9022318
:101D90002046FFF765FAC7F89440D8F848403CB1B0
:101DA0002168D4E902232046FFF75AFAC7F8984081
:101DB000D8F84C403CB12168D4E902232046FFF713
:101DC0004FFAC7F89C40D8F850403CB12168D4E99C
:101DD00002232046FFF744FAC7F8A04001203872DA
:101DE000FEF7C4FB0020BDE8F0810000B0B540F272
:101DF0000404C2F20004207A012818D1FFF7D8FDAC
:101E000068B1FEF75BFD42F67C05C0F60005686828
:101E100040F2E521C0F60001FEF72CFD70B14FF055
:101E2000FF304FF0FF34FEF79BFB2046B0BD6FF054
:101E30000600FEF795FB4FF0FF30B0BDFEF716FD34
:101E40002061FEF7F9FC04F11C00FFF709FDFFF724
:101E5000D7FD2878C0070CBF0320022080F3148828
:101E600002202072FEF786FB0020B0BD2DE9F04174
:101E70001F4690460D46FFF729FA0446002818BF72
:101E8000002D09D120466FF003016FF00305FEF726
:101E900083FB2846BDE8F0812078FA28F2D120465D
:101EA000FEF770FC00284DD0064620463146FEF76E
:101EB000A9FC626A06F10C012846FEF741FAB8F166
:101EC000000F1CBFF07888F8000020462946FEF776
:101ED0007BFB04F10C070025384631463570FFF7CF
:101EE0009DF9A068002850D03846FFF781F90028F6
:101EF0004FF0000549D006462046FFF7CFFAFFF71E
:101F0000AFFC002101220746FFF7B8FD3846FFF776
:101F100029FDD0F80880626A074606F10C004146A8
:101F2000FEF70EFAF9203070F8683146F07020465E
:101F3000B570FEF73DFC20464146FEF737FB2846CC
:101F4000BDE8F081DFB1204629463A46FEF728FB7E
:101F500083203946FFF764FDD0B12046FFF79EFA93
:101F60000446FFF769FC01462046FFF785FCEFF3C6
:101F70000980C0E902586FF00100BDE8F0812046F9
:101F80002946FEF719FB6FF002052846BDE8F081EF
:101F90002046FEF707FB6FF00100BDE8F08100006E
:101FA0002DE9F04F81B0A0B10D4691B1044605F185
:101FB0000F0020F00306B4FA84F0B6FA86F1084464
:101FC0001F2810D800206FF003010027FEF7E4FA65
:101FD00005E000206FF003010027FEF7DDFA384628
:101FE00001B0BDE8F08F06FB04F9A2B1D2F808B049
:101FF0001368D2E90480BBF1000F20D05FEA8B7137
:1020000002D1D168332929D800206FF008010027B8
:10201000FEF7C2FAE3E74FF000084FF0000B002391
:1020200040F20401BBF1000FC2F2000100930FD097
:102030004FF0000A5F46B8F1000F2AD05BE0D1688C
:1020400061B100206FF008010027FEF7A5FAC6E78E
:10205000D1F8A00088B1FFF7CBF814E0B8F1000F79
:1020600036D0484502D318F00300D9D000206FF0D5
:1020700009010027FEF790FAB1E7D1F8800034217A
:102080000122FEF7DFFF07464FF0010AB8F1000F0B
:1020900031D187B340F20400C2F20000C06F49465C
:1020A0000022FEF7CFFF804620B140464946FEF7AA
:1020B00094F91EE0BBF1000F1AD140F20401C2F204
:1020C0000001D1F8A00070B13946FFF7A7F80FE082
:1020D00030B100206FF009010027FEF75DFA7EE7BE
:1020E0004FF000089CE7D1F880003946FFF712F85E
:1020F00000270AF1020A07B3FA200099387000207D
:1021000087F802A0C7E90110C7E90950C7E90B0029
:1021100007F10C00214632464346FFF7A1F841F291
:10212000D92040F20402C0F600007968C2F2000231
:1021300010673846FEF72EFA51E700206FF00401D1
:10214000FEF72AFA4BE700002DE9F0411F469046C2
:102150000C46FFF7BBF80646002818BF002C09D133
:1021600030466FF003016FF00307FEF715FA3846AB
:10217000BDE8F0813078FA28F2D1B06830B3407809
:10218000832823D130462146FEF710FA3046FFF768
:1021900085F9FFF765FB002101220546FFF76EFC7C
:1021A0002846FFF7DFFB8568726A07462846214606
:1021B000FEF7C6F8F8682946002818BF80F80080A6
:1021C0003046FEF701FA0020BDE8F08106F10C0070
:1021D000FFF70EF8B0B1726A05460C302146FEF7E3
:1021E000AFF8F9202870002730462946AF7085F8EF
:1021F0000380FEF7DDFA30462146FEF7D7F9384670
:10220000BDE8F081DFB1304621463A46FEF7D8F905
:1022100093203946FFF704FCC8B13046FFF73EF97A
:102220000546FFF709FB01462846FFF725FBEFF3BC
:102230000980C0E902486FF00100BDE8F081304636
:102240002146FEF7B7F96FF00200BDE8F081304695
:10225000FEF7B8F96FF00100BDE8F08170B50E46E9
:10226000FFF7BCF80446FFF7EDFAB0B364B30546D8
:102270002078F52828D1207EB8B3E178CA0702D0AB
:10228000E268AA424ED0002E40D088070AD5E06806
:1022900095F9201090F920208A4203DA80F8201066
:1022A000FFF71CFB20463146FEF792F953203146DA
:1022B000FFF7B6FB80B32046FFF7F2F82946FFF799
:1022C000DBFA6FF0010070BD20466FF003016FF084
:1022D0000304FEF789F9204670BD20466FF0070120
:1022E000FEF782F94FF0FF3070BDE86A0021E5602B
:1022F00021610028606118BF04610120EC62207632
:1023000020460121FEF768F9002070BD2046FEF747
:102310006FF96FF0020070BD2046FEF75BF96FF0B9
:10232000010070BDFF2804D001302076C1B22046E4
:10233000E8E720466FF00F01FEF756F96FF0020054
:1023400070BD0000B0B5FFF749F8044640B32078EF
:10235000F52825D1207E002848D06169E068002951
:102360001CBF22690A61D4E9041201F11403002997
:10237000E17808BF00F12C0389071A6021D5C26AF1
:1023800090F8211001E000BF526992B19368002BD0
:10239000FAD093F920304DB2AB42C8BFD9B2F3E7BF
:1023A00020466FF003016FF00304FEF71DF920468D
:1023B000B0BD90F820208A4203D080F82010FFF7AB
:1023C0008DFAA06878B12046FFF76AF8054600BF8D
:1023D0002846FFF745FA6FF002010022FFF74EFB97
:1023E000A0680028F4D10020FFF7C0F9A0780021F0
:1023F000C00721700FD040F20401C2F20001D1F8F1
:10240000940018B12146FEF709FF04E0D1F88000DE
:102410002146FEF77FFE2046FEF7E4F80020B0BD1F
:1024200070B548B18468D0E90056E4B1A1071CD169
:10243000C0681B2803D818E0002400260025E4B15A
:10244000002074B3F521A07000202170E670C4E96B
:102450000150C4E903006061207620462946FEF75A
:10246000BDF8204670BDC06820B100206FF00801A3
:10247000002419E00024002CE2D140F20401C2F251
:102480000001D1F8940010B1FEF7B2FE05E0D1F8DA
:1024900080001C210122FEF7D5FD04460120002CFE
:1024A000D0D100206FF00401FEF79EF8204670BDE9
:1024B00070B5FEF793FF0446FFF7C4F9B0B164B1FD
:1024C00005462078F52808D1207EB8B1E168A942F8
:1024D0001CD020466FF00D0113E020466FF0030181
:1024E0006FF00304FEF780F8204670BD20466FF0C1
:1024F0000701FEF779F84FF0FF3070BD20466FF00E
:102500000E01FEF771F86FF0020070BD0138207601
:10251000C1B22046FEF770F8207E00281CBF0020C4
:1025200070BD606900281CBF21690161D4E9040104
:1025300000F114020028E07808BF05F12C028007A2
:10254000116011D5E96A95F8210000E0496949B1A7
:102550008A68002AFAD092F9202043B29A42C8BF72
:102560001046F3E785F82000A068C0B12046FEF7CA
:1025700097FFFFF775F90021002205460026FFF7B7
:102580007DFAE86AE56026610028606118BF046191
:102590000120207620460121EC62FEF71DF8002084
:1025A0000024FFF7E3F8204670BD0000B0B5FEF749
:1025B0003BFD022835D140F20405C2F20005686AED
:1025C000002808BFB0BDFFF743F90446C06AFEF714
:1025D00009FFA06930B100210022FFF74FFAA0697E
:1025E000FEF71CF8EFF30980A06305F11C00FFF76C
:1025F00037F9FFF705FAFFF7BDF9E078C00703D117
:102600002046FFF7E3F809E004206070686B0021C2
:10261000E1600028A06018BFC4606C632046FDF72D
:10262000F3FFB0BD2DE9F04F81B0B0B10646894649
:10263000D2B1946802F1100AD2E9001B9AE8A00412
:1026400054B3A00702D1D06843282ED800206FF0E1
:1026500008010024FDF7DAFFF7E000206FF0030126
:102660000024FDF7D3FFF0E04FF0180A00244FF0EC
:10267000000B00250027002127B1482F28D317F091
:10268000070025D140F20402C2F20002009134B3E7
:102690004FF00008D5B376E0D06830B100206FF07D
:1026A00008010024FDF7B2FFCFE01DB1EFB115F036
:1026B00007001AD1BAF1000F58D0AAF1010038284A
:1026C000DAD300206FF00B010024FDF79FFFBCE080
:1026D00000206FF00A010024FDF798FFB5E0D2F862
:1026E000880048B1FEF784FD0CE000206FF00A017D
:1026F0000024FDF78BFFA8E0D2F8800044210122DE
:10270000FEF7A0FC04464FF00108E5BBDCB35FB167
:1027100040F20400C2F20000406F39460022FEF78A
:1027200091FC05466DBB13E040F2040242F67C01C9
:10273000C2F20002C0F60001D2F884004F6DC0B1B1
:10274000FEF756FD0546002818BF08F11008C5B968
:102750005FEAC87014D040F20401C2F20001D1F85F
:10276000880040B12146FEF759FD09E04FF0180AF4
:1027700082E7506FD1E7D1F880002146FEF7CAFC0E
:10278000002448F00208002C63D040F2F11084F8D5
:102790000280DDF800802080002084F803B0C4E9C6
:1027A0000180C4E90300C4E90500E061C4F8230026
:1027B000C4F82700C4F82B0084F82F00E819FD2185
:1027C000403884F820A084F821A084F82210C4E9BD
:1027D0000C57C4E90E0642F67C00C0F600000078F3
:1027E00042F6A561CEF25A21400729600BD527F0A9
:1027F0000300442807D0A7F14401281D21F003015C
:10280000CC22FDF7E2FDA56B34212846FDF707FE3B
:1028100041F6D930C0F600004FF08071C5E90D06D1
:10282000E963C5F8209041F6151040F20402C0F6A5
:102830000000E16BC2F20002106620464246FDF73E
:10284000E1FE14B12046FEF791FF204601B0BDE83D
:10285000F08F00206FF00401FDF7D8FE002CF1D1BD
:10286000F3E7F1EE100A4FF6FF71C0F2C03120EA33
:10287000010040F04070E1EE100A704703000000D4
:10288000E803000005000000100100201000000017
:102890000000000000000000000000000000000038
:1028A0000000000000000000500100200080000037
:1028B0000000000000000000000000000000000018
:1028C0000000000000000000000000000000000008
:1028D000000C0000302900086C2900085429000869
:1028E00004000000D48100205C8200200000000071
:1028F00000000000000000000000000000000000D8
:1029000000000000000000000000000000000000C7
:1029100000000000508100208481002000000000A1
:10292000000000000102030406070809000000007F
:102930000000000000000000D481002044000000DE
:102940006082002000020000010000000000000082
:102950000000000000000000000000005081002086
:1029600034000000848100205000000000000000BE
:102970000000000018820020440000006084002055
:10298000000200002800000000000000000000001D
:102990005254582056352E352E320000BC290008DE
:1029A00000000020A8000000D0010008642A0008F0
:1029B000A8000020C08B0000EC0100080024F400F7
:1029C00090290008D2B3FB020000000000000000C4
:1029D00000000000000000000000000000000000F7
:1029E00000000000000000000000000000000000E7
:1029F00000000000000000000000000000000000D7
:102A000000000000000000000000000000000000C6
:102A100000000000000000000000000000000000B6
:102A200000000000000000000000000000000000A6
:102A30000000000000000000000000000000000096
:102A40000000000000000000000000000000000086
:102A50000000000000000000000000000000000076
:042A60000000000072
:0400000508000301EB
:00000001FF
