:03000000020003F8
:0C000300787FE4F6D8FD75812102004AE8
:070250000512696E7465726E
:0F020A00759850758920758BFD758DFDD28E22EC
:080240003098FDC298AF99222D
:080248008F993099FDC2992243
:10019C008B1B8A1C891DAB1BAA1CA91D1200FD60A0
:1001AC0013051DE51D7002051C14F91200FDFF124C
:0501BC00024880E22270
:0F021900000000000000000000000000000022B4
:0B023500E4F5207F071202288F202232
:070258007D707F270201F910
:1001C100C294D293C2927B007A0079127511057F95
:1001D100301201437B007A0079127511057F2A02E2
:0201E1000143D8
:100172008F21E4FFFEA20F9291E52125E0F521D225
:10018200925321FEA290E4334221C2920FBF00019A
:090192000EEF64084E70DEAF218F
:01019B002241
:1001F900C293120172AC07AF05120172D293AF0418
:0102090022D2
:060143008B0E8A0F8910EB
:10014900C293120172AD07E4FCECC395115015ABD3
:100159000EAA0FA9108C82758300120116FF1201D5
:08016900720C80E5D293AF0592
:01017100226B
:06008F008B098A0A890BAF
:10009500120258C2947DFF7FE11201F9E4FD7F2031
:1000A5001201F90D7F211201F97F221201F97D0359
:1000B5007F231201F97D1A7F241201F97D6E7F25B8
:1000C5001201F97D067F261201F97D0E7F201201AE
:1000D500F9AB09AA0AA90B7511017FA0120143D238
:1000E50094120219C2941202353004037F002230A3
:0700F50005037F0122AF0C9F
:0100FC0022E1
:0C022800C293120172E4FF120172D29323
:0102340022A7
:1001E30012020A1201C11202408F087B007A0079C1
:0601F3000812008F80F0ED
:10000F000201E3E493A3F8E493A34003F68001F223
:10001F0008DFF48029E493A3F85407240CC8C333F2
:10002F00C4540F4420C8834004F456800146F6DFC1
:10003F00E4800B0102040810204080900250E47EFF
:10004F00019360BCA3FF543F30E509541FFEE493B6
:10005F00A360010ECF54C025E060A840B8E493A37D
:10006F00FAE493A3F8E493A3C8C582C8CAC583CAA8
:10007F00F0A3C8C582C8CAC583CADFE9DEE780BE60
:0102570000A6
:1000FD00BB010689828A83E0225002E722BBFE0201
:09010D00E32289828A83E4932233
:10011600BB010CE58229F582E5833AF583E022509E
:1001260006E92582F8E622BBFE06E92582F8E222E8
:0D013600E58229F582E5833AF583E4932202
:00000001FF
