:030000000209A052
:0C09A000787FE4F6D8FD75810E02080097
:0E09920054454D503A2000474153203A200072
:1008000012094A7BFF7A0979921209077FC01209FF
:100810002C7BFF7A0979991209077F8612092CE44B
:10082000FFFE1208B08F0CE50C1208DCE50C75F029
:100830000A1208DFE50C1208E07FC612092C7F01BE
:100840007E001208B08F0DE50D1208DCE50D75F085
:0C0850000A1208DFE50D1208E002081A89
:10094A007F0212092C7F2812092C7F0E12092C7F94
:09095A000612092C7F8002092C11
:10092C008F08C29053900FE50812097DC2911209ED
:0E093C008353900FE50812097CC291020983D3
:0D08DC0075F0648475F00A84E5F02430FFA7
:1008E9008F0BD29053900FE50B12097DC29112091B
:0E08F9008353900FE50B12097CC29102098314
:100907008B088A09890AAB08AA09A90A1209636030
:1009170013050AE50A7002050914F9120963FF12A3
:0509270008E980E22256
:07097C00C454F04290D29137
:0E098300E4FFFE0FBF00010EBE03F8BFE9F552
:010991002243
:1008B0007580FFC2A6C2A5C2A4C2A0C2A2C2A7D20E
:1008C000A112085CD2A7D2A2C2A7C2A220A1FD3069
:0C08D000A1FDD2A085800EC2A0AF0E22B8
:10085C00EE7050EFB40800504A90086CF8282873DA
:10086C0002088402088802088C020890020894028C
:10087C00089B0208A20208A9C2A6800EC2A680117B
:10088C00C2A68014C2A68017D2A6C2A5C2A422D228
:10089C00A6C2A5D2A422D2A6D2A5C2A422D2A6D2E6
:0408AC00A5D2A4220B
:10096300BB010689828A83E0225002E722BBFE0292
:09097300E32289828A83E49322C5
:00000001FF
