:100000000A128A11002F00308A000408840A82072D
:100010000034573445344C3443344F344D34453434
:10002000203454344F34203445346D3462346534D4
:10003000543472346F346E34693463345834003459
:100E0000F501F60183010A128A11A02F38300A1267
:100E10008A1140270A128A110C300A128A114027BF
:100E20000A128A1106300A128A1140270A128A1100
:100E300080300A128A1140270A128A110800F20033
:100E4000322F720884000A128A1103200A128A11B2
:100E50000A128A1170270A128A110130F1007108F2
:100E6000F207322F720884000A128A1103200A1234
:100E70008A110038031D3D2F3E2F212F3F2F0800E0
:100E8000F0007008831203138600071087100715FF
:100E9000F501F6017608803AFF0083307F02031DDA
:100EA000532FE8307502031C562F572F592F6C2FE4
:100EB0006C2F0130F5070318F60A0030F6077608A4
:100EC000803AFF0083307F02031D682FE8307502EF
:100ED000031C6B2F6C2F592F83120313071108006B
:100EE000F00070088312031386000714871007159B
:100EF000F501F6017608803AFF0083307F02031D7A
:100F0000832FE8307502031C862F872F892F9C2F93
:100F10009C2F0130F5070318F60A0030F607760813
:100F2000803AFF0083307F02031D982FE83075025E
:100F3000031C9B2F9C2F892F83120313071108007A
:100F400083160313071187100710003007180130AC
:100F500086000A128A1106270A128A1190300A1294
:100F60008A1140270A128A1101300A128A111F279A
:100F70000A128A11BB2FF301F4013A30740298303F
:100F800003197302031CC52FC62FC82FD82FD82FC3
:100F90000130F3070318F40A0030F4073A30740202
:100FA000983003197302031CD62FD72FC82FD82FC0
:100FB00018300A128A1140270A128A11F301F4012B
:100FC0003A307402983003197302031CE82FE92F9A
:100FD000EB2FBB2FBB2F0130F3070318F40A0030AF
:100FE000F4073A307402983003197302031CF92F86
:100FF000FA2FEB2FBB2FBB2FBB2F0A128A11002811
:02400E007AFF37
:00000001FF
