:060000000A128A11122809
:10000800FE00030EF4000408F5000A08F600831247
:1000180003137F08F7000A128A1115280A128A1199
:10002800E1291A08F3007308F80078080A128A11FF
:10003800D5210A128A1180300A128A11F5200A1273
:100048008A1101300A128A1178210A128A11C030E5
:100058000A128A11F5200A128A1112300A128A111C
:1000680078210A128A11C8300A128A11F5200A1258
:100078008A1178080A128A1125210A128A11FB01AD
:10008800FC01C3307C02513003197B02031C4D284C
:100098004E285028602860280130FB070318FC0A06
:1000A8000030FC07C3307C02513003197B02031C6B
:1000B8005E285F2850286028FB01FC01C3307C02C1
:1000C800513003197B02031C6A286B286D287C2891
:1000D8007C280130FB070318FC0A0030FC07C330FA
:1000E8007C02513003197B02031C7B287C286D2875
:1000F800831203138C120C127708FF0076088A000B
:1001080075088400740E8300FE0E7E0E09008316A7
:1001180003138801081891289528831603130715D7
:10012800982883160313071107199B289F288316FD
:1001380003138714A2288316031387108718A5288A
:10014800A928831603130714AC2883160313071072
:1001580038300A128A11C5200A128A110E300A1282
:100168008A11C5200A128A1106300A128A11C5207E
:100178000A128A1180300A128A11C5200A128A11BD
:10018800080083120313A0002008880007108710B6
:100198000715F901FA017A08803AFF0083307F02D7
:1001A800031DD828E8307902031CDB28DC28DE2868
:1001B800F128F1280130F9070318FA0A0030FA0784
:1001C8007A08803AFF0083307F02031DED28E8306B
:1001D8007902031CF028F128DE2883120313071183
:1001E8000800F000700883120313880007108710B6
:1001F8000715F901FA017A08803AFF0083307F0277
:10020800031D0829E8307902031C0B290C290E2943
:10021800212921290130F9070318FA0A0030FA07C1
:100228007A08803AFF0083307F02031D1D29E830D9
:100238007902031C202921290E298312031307118F
:100248000800F00070088312031388000714871051
:100258000715F901FA017A08803AFF0083307F0216
:10026800031D3829E8307902031C3B293C293E2923
:10027800512951290130F9070318FA0A0030FA0701
:100288007A08803AFF0083307F02031D4D29E83049
:100298007902031C502951293E298312031307119F
:1002A8000800831603138801C03083120313A100CA
:1002B80021088B042030831603138C000A128A113C
:1002C8008B200A128A110A128A11B9210A128A117C
:1002D8006D2901300A128A11C5200A128A116D2966
:1002E8006D290A128A111228F2008B2972088400DB
:1002F8000A128A1199210A128A110A128A112521D1
:100308000A128A110130F1007108F2078B2972086C
:1003180084000A128A1199210A128A110038031DD1
:10032800962997297A299829080001308A00040813
:10033800840A820700345334653472346934613472
:100348006C34203469346E347434653472347234E5
:100358007534703474340034203420344B346534AC
:10036800793420343A342034003483160313871741
:10037800871BBF29C329831603130717C6298316AA
:100388000313071322309800903083120313980048
:100398001130831603139900831203138C120C1265
:1003A8000800F0007008831203139900DB290C1E63
:1003B800DE29DF29DB29E0290800F901FA01FB0120
:0A03C800FC0183010A128A11552975
:02400E007AFF37
:00000001FF
