:100000000A128A11C92D00308A000408840A820766
:100010000034543469346D3465343A340034443433
:0A0020006134743465343A3400345E
:100B0800F90079080F39303E892D08008B2D8312A2
:100B180003138C1D902D912D8B2D8C11080083169D
:100B2800031311150A128A118A250A128A1108005C
:100B38008316031391140A128A118A250A128A113C
:100B4800080083160313911611160A128A118A25B2
:100B58000A128A110800FA007A08F9000430031012
:100B6800F90CFF3E031DB32D7908303EBB2D08005C
:100B78008316031391150A128A118A250A128A11FB
:100B8800831203131308C82D0800F001F101F201C4
:100B9800F301F401F501F601F701F80183010A12E6
:100BA8008A11DB2EF90079088312031393000A12C5
:100BB8008A118A250A128A11E12D83160313111B43
:100BC800E62DE72DE12DE82D0800831603130716FF
:100BD800071AEF2DF32D831603138715F62D8316A9
:100BE800031387112830831203139400FF308316F0
:100BF8000313930008008316031386018801383015
:100C08000A128A113D260A128A110C300A128A1118
:100C18003D260A128A1106300A128A113D260A1246
:100C28008A1180300A128A113D260A128A11080098
:100C3800FB002F2E7B0884000A128A1103200A1257
:100C48008A110A128A116D260A128A110130FA00D5
:100C58007A08FB072F2E7B0884000A128A110320CA
:100C68000A128A110038031D3A2E3B2E1E2E3C2EE6
:100C78000800F9007908831203138800061086100B
:100C88000615F001F1017108803AFF0083307F02F8
:100C9800031D502EE8307002031C532E542E562E7E
:100CA800692E692E0130F0070318F10A0030F107A8
:100CB8007108803AFF0083307F02031D652EE830FB
:100CC8007002031C682E692E562E83120313061118
:100CD8000800F900790883120313880006148610A7
:100CE8000615F001F1017108803AFF0083307F0298
:100CF800031D802EE8307002031C832E842E862E5E
:100D0800992E992E0130F0070318F10A0030F107E7
:100D18007108803AFF0083307F02031D952EE8306A
:100D28007002031C982E992E862E83120313061127
:100D38000800FB000A128A119C250A128A11D03079
:100D48008312031393000A128A118A250A128A1140
:100D5800AE2E9E2E83160313111BB32EB42E9E2E79
:100D6800B52E7B080A128A11D6250A128A110A1290
:100D78008A119C250A128A11D1300A128A11D625A5
:100D88000A128A110A128A11BC250A128A11FA005B
:100D98007A08FC000A128A11A5250A128A110A1279
:100DA8008A1193250A128A117C08DA2E08000A1281
:100DB8008A11FF250A128A1101300A128A111C268B
:100DC8000A128A11C0300A128A113D260A128A11A3
:100DD80007300A128A111C260A128A110A128A116D
:100DE800E9250A128A11F82E00300A128A119D2666
:100DF8000A128A11FD007D08F70001300A128A11D3
:100E08009D260A128A11FD007D08F50002300A129B
:100E18008A119D260A128A11FD007D08F40003300C
:100E28000A128A119D260A128A11FD007D08F30014
:100E380004300A128A119D260A128A11FD007D08C3
:100E4800F20005300A128A119D260A128A11FD0045
:100E58007D08F60006300A128A119D260A128A11A8
:100E6800FD007D08F80085300A128A113D260A1215
:100E78008A1174080A128A11AF250A128A110A12F5
:100E88008A116D260A128A1174080A128A11842599
:100E98000A128A110A128A116D260A128A113A3028
:100EA8000A128A116D260A128A1175080A128A1105
:100EB800AF250A128A110A128A116D260A128A119E
:100EC80075080A128A1184250A128A110A128A11CF
:100ED8006D260A128A113A300A128A116D260A12F0
:100EE8008A1177080A128A11AF250A128A110A1282
:100EF8008A116D260A128A1177080A128A11842526
:100F08000A128A110A128A116D260A128A11C5302C
:100F18000A128A113D260A128A1172080A128A11C7
:100F2800AF250A128A110A128A116D260A128A112D
:100F380072080A128A1184250A128A110A128A1161
:100F48006D260A128A113A300A128A116D260A127F
:100F58008A1176080A128A11AF250A128A110A1212
:100F68008A116D260A128A1176080A128A118425B6
:100F78000A128A110A128A116D260A128A113A3047
:100F88000A128A116D260A128A1178080A128A1121
:100F9800AF250A128A110A128A116D260A128A11BD
:100FA80078080A128A1184250A128A110A128A11EB
:100FB8006D260A128A112F300A128A116D260A121A
:100FC8008A1173080A128A11AF250A128A110A12A5
:100FD8008A116D260A128A1173080A128A11842549
:100FE8000A128A110A128A116D260A128A11F82E1B
:080FF800F82E0A128A110028EC
:02400E007AFF37
:00000001FF
