:060000000A128A11122809
:10000800FE00030EF3000408F4000A08F50083124A
:1000180003137F08F6000A128A1115280A128A119A
:10002800232A0B1D1828192853280130F70703180D
:10003800F80A0030F8072A3077067804031D2528C7
:100048002628512880300A128A1188210A128A111A
:1000580001300A128A11E8210A128A11F701F801FF
:10006800FB01FC01C3307C02513003197B02031CE5
:100078003E283F284128512851280130FB07031802
:10008800FC0A0030FC07C3307C02513003197B02A4
:10009800031C4F285028412851280B11D8280C1C24
:1000A8005628572893280130A0070318A10A0030C2
:1000B800A107543020062104031D632864289128D1
:1000C800C0300A128A1188210A128A1112300A12C3
:1000D8008A11E8210A128A1183120313A001A101CF
:1000E800FB01FC01C3307C02513003197B02031C65
:1000F8007E287F288128912891280130FB07031842
:10010800FC0A0030FC07C3307C02513003197B0223
:10011800031C8F289028812891280C10D8288C1C23
:1001280096289728D8280130A2070318A30A003078
:10013800A30707302306031DA328E9302206031D61
:10014800A628A728D42880300A128A1188210A12E2
:100158008A1123300A128A11E8210A128A1183129D
:100168000313A201A301FB01FC01C3307C0251303F
:1001780003197B02031CC128C228C428D428D42808
:100188000130FB070318FC0A0030FC07C3307C026F
:10019800513003197B02031CD228D328C428D42841
:1001A8008C10D828D828D828760883120313FF0083
:1001B80075088A0074088400730E8300FE0E7E0E94
:1001C80009008316031388010818EB28EF28831603
:1001D80003130715F2288316031307110719F528C7
:1001E800F928831603138714FC2883160313871032
:1001F8008718FF2803298316031307140629831673
:100208000313071038300A128A1158210A128A116A
:100218000E300A128A1158210A128A1106300A125F
:100228008A1158210A128A1180300A128A1158211B
:100238000A128A11080001308A000408840A820719
:100248000034543469346D346534723420343034B5
:10025800203469346E3474346534723475347034CF
:1002680074340034543469346D3465347234203451
:100278003134203469346E347434653472347534EE
:10028800703474340034543469346D3465347234E1
:1002980020343234203469346E3474346534723422
:1002A800753470347434003483120313A4002408A2
:1002B8008800071087100715F901FA017A08803AB3
:1002C800FF0083307F02031D6B29E8307902031C8D
:1002D8006E296F297129842984290130F9070318A7
:1002E800FA0A0030FA077A08803AFF0083307F0262
:1002F800031D8029E8307902031C83298429712988
:100308008312031307110800F00070088312031307
:100318008800071087100715F901FA017A08803A52
:10032800FF0083307F02031D9B29E8307902031CFC
:100338009E299F29A129B429B4290130F907031856
:10034800FA0A0030FA077A08803AFF0083307F0201
:10035800031DB029E8307902031CB329B429A12967
:100368008312031307110800F000700883120313A7
:100378008800071487100715F901FA017A08803AEE
:10038800FF0083307F02031DCB29E8307902031C6C
:10039800CE29CF29D129E429E4290130F907031806
:1003A800FA0A0030FA077A08803AFF0083307F02A1
:1003B800031DE029E8307902031CE329E429D12947
:1003C8008312031307110800F200FB297208840046
:1003D8000A128A111F210A128A110A128A11B821D7
:1003E8000A128A110130F1007108F207FB2972081C
:1003F80084000A128A111F210A128A110038031D6B
:10040800062A072AEA29082A08000A128A11E5207A
:100418000A128A110A128A1131220A128A110A1240
:100428008A113C220A128A1101300A128A115821B3
:100438000A128A11182A182A0A128A111228F70190
:10044800F801F901FA01FB01FC01A001A101A201D7
:10045800A30183010A128A11092A0730831603139C
:10046800810001308312031390007C309200080051
:0E047800E0308B000330831603138C00080065
:00000001FF
